{
  "contractName": "InventoryManagement",
  "abi": [
    {
      "inputs": [],
      "stateMutability": "nonpayable",
      "type": "constructor"
    },
    {
      "anonymous": false,
      "inputs": [
        {
          "indexed": false,
          "internalType": "uint256",
          "name": "productId",
          "type": "uint256"
        },
        {
          "indexed": false,
          "internalType": "uint256",
          "name": "newQuantity",
          "type": "uint256"
        }
      ],
      "name": "InventoryUpdated",
      "type": "event"
    },
    {
      "anonymous": false,
      "inputs": [
        {
          "indexed": false,
          "internalType": "uint256",
          "name": "productId",
          "type": "uint256"
        },
        {
          "indexed": false,
          "internalType": "string",
          "name": "name",
          "type": "string"
        },
        {
          "indexed": false,
          "internalType": "uint256",
          "name": "quantity",
          "type": "uint256"
        }
      ],
      "name": "ProductAdded",
      "type": "event"
    },
    {
      "anonymous": false,
      "inputs": [
        {
          "indexed": false,
          "internalType": "uint256",
          "name": "productId",
          "type": "uint256"
        },
        {
          "indexed": false,
          "internalType": "uint256",
          "name": "reorderQuantity",
          "type": "uint256"
        }
      ],
      "name": "ReorderTriggered",
      "type": "event"
    },
    {
      "inputs": [
        {
          "internalType": "address",
          "name": "",
          "type": "address"
        }
      ],
      "name": "managers",
      "outputs": [
        {
          "internalType": "bool",
          "name": "",
          "type": "bool"
        }
      ],
      "stateMutability": "view",
      "type": "function",
      "constant": true
    },
    {
      "inputs": [],
      "name": "owner",
      "outputs": [
        {
          "internalType": "address",
          "name": "",
          "type": "address"
        }
      ],
      "stateMutability": "view",
      "type": "function",
      "constant": true
    },
    {
      "inputs": [],
      "name": "productCounter",
      "outputs": [
        {
          "internalType": "uint256",
          "name": "",
          "type": "uint256"
        }
      ],
      "stateMutability": "view",
      "type": "function",
      "constant": true
    },
    {
      "inputs": [
        {
          "internalType": "uint256",
          "name": "",
          "type": "uint256"
        }
      ],
      "name": "products",
      "outputs": [
        {
          "internalType": "string",
          "name": "name",
          "type": "string"
        },
        {
          "internalType": "uint256",
          "name": "quantity",
          "type": "uint256"
        },
        {
          "internalType": "uint256",
          "name": "price",
          "type": "uint256"
        },
        {
          "internalType": "uint256",
          "name": "reorderThreshold",
          "type": "uint256"
        }
      ],
      "stateMutability": "view",
      "type": "function",
      "constant": true
    },
    {
      "inputs": [
        {
          "internalType": "string",
          "name": "_name",
          "type": "string"
        },
        {
          "internalType": "uint256",
          "name": "_quantity",
          "type": "uint256"
        },
        {
          "internalType": "uint256",
          "name": "_price",
          "type": "uint256"
        },
        {
          "internalType": "uint256",
          "name": "_reorderThreshold",
          "type": "uint256"
        }
      ],
      "name": "addProduct",
      "outputs": [],
      "stateMutability": "nonpayable",
      "type": "function"
    },
    {
      "inputs": [
        {
          "internalType": "uint256",
          "name": "_productId",
          "type": "uint256"
        },
        {
          "internalType": "uint256",
          "name": "_newQuantity",
          "type": "uint256"
        }
      ],
      "name": "updateInventory",
      "outputs": [],
      "stateMutability": "nonpayable",
      "type": "function"
    },
    {
      "inputs": [
        {
          "internalType": "uint256",
          "name": "_productId",
          "type": "uint256"
        }
      ],
      "name": "reorderIfNeeded",
      "outputs": [],
      "stateMutability": "nonpayable",
      "type": "function"
    },
    {
      "inputs": [
        {
          "internalType": "address",
          "name": "_manager",
          "type": "address"
        }
      ],
      "name": "addManager",
      "outputs": [],
      "stateMutability": "nonpayable",
      "type": "function"
    },
    {
      "inputs": [
        {
          "internalType": "address",
          "name": "_manager",
          "type": "address"
        }
      ],
      "name": "removeManager",
      "outputs": [],
      "stateMutability": "nonpayable",
      "type": "function"
    },
    {
      "inputs": [
        {
          "internalType": "uint256",
          "name": "_productId",
          "type": "uint256"
        }
      ],
      "name": "getProduct",
      "outputs": [
        {
          "internalType": "string",
          "name": "",
          "type": "string"
        },
        {
          "internalType": "uint256",
          "name": "",
          "type": "uint256"
        },
        {
          "internalType": "uint256",
          "name": "",
          "type": "uint256"
        },
        {
          "internalType": "uint256",
          "name": "",
          "type": "uint256"
        }
      ],
      "stateMutability": "view",
      "type": "function",
      "constant": true
    }
  ],
  "bytecode": "0x6080604052730bfabb6471d6e953e06407078cc25e02699f543a600260006101000a81548173ffffffffffffffffffffffffffffffffffffffff021916908373ffffffffffffffffffffffffffffffffffffffff160217905550600060035534801561006a57600080fd5b506001806000600260009054906101000a900473ffffffffffffffffffffffffffffffffffffffff1673ffffffffffffffffffffffffffffffffffffffff1673ffffffffffffffffffffffffffffffffffffffff16815260200190815260200160002060006101000a81548160ff021916908315150217905550611078806100f36000396000f3fe608060405234801561001057600080fd5b506004361061009e5760003560e01c80637acc0b20116100665780637acc0b20146101315780638da5cb5b14610164578063ac18de4314610182578063b9db15b41461019e578063fdff9b4d146101d15761009e565b8063094455c4146100a35780631f16653b146100bf5780632d06177a146100dd578063522547a8146100f95780635fb992c414610115575b600080fd5b6100bd60048036038101906100b89190610a9e565b610201565b005b6100c7610362565b6040516100d49190610d72565b60405180910390f35b6100f760048036038101906100f29190610a75565b610368565b005b610113600480360381019061010e9190610b42565b610452565b005b61012f600480360381019061012a9190610b19565b610545565b005b61014b60048036038101906101469190610b19565b61065c565b60405161015b9493929190610ce6565b60405180910390f35b61016c610714565b6040516101799190610cb0565b60405180910390f35b61019c60048036038101906101979190610a75565b61073a565b005b6101b860048036038101906101b39190610b19565b610825565b6040516101c89493929190610ce6565b60405180910390f35b6101eb60048036038101906101e69190610a75565b610920565b6040516101f89190610ccb565b60405180910390f35b60011515600160003373ffffffffffffffffffffffffffffffffffffffff1673ffffffffffffffffffffffffffffffffffffffff16815260200190815260200160002060009054906101000a900460ff16151514610294576040517f08c379a000000000000000000000000000000000000000000000000000000000815260040161028b90610d32565b60405180910390fd5b604051806080016040528085815260200184815260200183815260200182815250600080600354815260200190815260200160002060008201518160000190805190602001906102e5929190610940565b506020820151816001015560408201518160020155606082015181600301559050507fcca07c742c5274e8b72111ba69566aa4442450bfc50bd897ea38d0170d1accfc600354858560405161033c93929190610d8d565b60405180910390a16003600081548092919061035790610f2d565b919050555050505050565b60035481565b600260009054906101000a900473ffffffffffffffffffffffffffffffffffffffff1673ffffffffffffffffffffffffffffffffffffffff163373ffffffffffffffffffffffffffffffffffffffff16146103f8576040517f08c379a00000000000000000000000000000000000000000000000000000000081526004016103ef90610d52565b60405180910390fd5b60018060008373ffffffffffffffffffffffffffffffffffffffff1673ffffffffffffffffffffffffffffffffffffffff16815260200190815260200160002060006101000a81548160ff02191690831515021790555050565b60011515600160003373ffffffffffffffffffffffffffffffffffffffff1673ffffffffffffffffffffffffffffffffffffffff16815260200190815260200160002060009054906101000a900460ff161515146104e5576040517f08c379a00000000000000000000000000000000000000000000000000000000081526004016104dc90610d32565b60405180910390fd5b80600080848152602001908152602001600020600101819055507fc3da32029c7581e1ff0ac81dbfdec1e6ffa311377c403de5640ea8ca50d8bc4b8282604051610530929190610dcb565b60405180910390a161054182610545565b5050565b60011515600160003373ffffffffffffffffffffffffffffffffffffffff1673ffffffffffffffffffffffffffffffffffffffff16815260200190815260200160002060009054906101000a900460ff161515146105d8576040517f08c379a00000000000000000000000000000000000000000000000000000000081526004016105cf90610d32565b60405180910390fd5b60008082815260200190815260200160002060030154600080838152602001908152602001600020600101541015610659577faa09676f3851e29ee819529ebe558479655d72dd1ca2d99b83092fe2f71b1d7d8160008084815260200190815260200160002060010154604051610650929190610dcb565b60405180910390a15b50565b600060205280600052604060002060009150905080600001805461067f90610efb565b80601f01602080910402602001604051908101604052809291908181526020018280546106ab90610efb565b80156106f85780601f106106cd576101008083540402835291602001916106f8565b820191906000526020600020905b8154815290600101906020018083116106db57829003601f168201915b5050505050908060010154908060020154908060030154905084565b600260009054906101000a900473ffffffffffffffffffffffffffffffffffffffff1681565b600260009054906101000a900473ffffffffffffffffffffffffffffffffffffffff1673ffffffffffffffffffffffffffffffffffffffff163373ffffffffffffffffffffffffffffffffffffffff16146107ca576040517f08c379a00000000000000000000000000000000000000000000000000000000081526004016107c190610d52565b60405180910390fd5b6000600160008373ffffffffffffffffffffffffffffffffffffffff1673ffffffffffffffffffffffffffffffffffffffff16815260200190815260200160002060006101000a81548160ff02191690831515021790555050565b606060008060008060008087815260200190815260200160002060405180608001604052908160008201805461085a90610efb565b80601f016020809104026020016040519081016040528092919081815260200182805461088690610efb565b80156108d35780601f106108a8576101008083540402835291602001916108d3565b820191906000526020600020905b8154815290600101906020018083116108b657829003601f168201915b505050505081526020016001820154815260200160028201548152602001600382015481525050905080600001518160200151826040015183606001519450945094509450509193509193565b60016020528060005260406000206000915054906101000a900460ff1681565b82805461094c90610efb565b90600052602060002090601f01602090048101928261096e57600085556109b5565b82601f1061098757805160ff19168380011785556109b5565b828001600101855582156109b5579182015b828111156109b4578251825591602001919060010190610999565b5b5090506109c291906109c6565b5090565b5b808211156109df5760008160009055506001016109c7565b5090565b60006109f66109f184610e25565b610df4565b905082815260208101848484011115610a0e57600080fd5b610a19848285610eb9565b509392505050565b600081359050610a3081611014565b92915050565b600082601f830112610a4757600080fd5b8135610a578482602086016109e3565b91505092915050565b600081359050610a6f8161102b565b92915050565b600060208284031215610a8757600080fd5b6000610a9584828501610a21565b91505092915050565b60008060008060808587031215610ab457600080fd5b600085013567ffffffffffffffff811115610ace57600080fd5b610ada87828801610a36565b9450506020610aeb87828801610a60565b9350506040610afc87828801610a60565b9250506060610b0d87828801610a60565b91505092959194509250565b600060208284031215610b2b57600080fd5b6000610b3984828501610a60565b91505092915050565b60008060408385031215610b5557600080fd5b6000610b6385828601610a60565b9250506020610b7485828601610a60565b9150509250929050565b610b8781610e71565b82525050565b610b9681610e83565b82525050565b6000610ba782610e55565b610bb18185610e60565b9350610bc1818560208601610ec8565b610bca81611003565b840191505092915050565b6000610be2602583610e60565b91507f4f6e6c79206d616e61676572732063616e20706572666f726d2074686973206160008301527f6374696f6e0000000000000000000000000000000000000000000000000000006020830152604082019050919050565b6000610c48602283610e60565b91507f4f6e6c79206f776e65722063616e20706572666f726d2074686973206163746960008301527f6f6e0000000000000000000000000000000000000000000000000000000000006020830152604082019050919050565b610caa81610eaf565b82525050565b6000602082019050610cc56000830184610b7e565b92915050565b6000602082019050610ce06000830184610b8d565b92915050565b60006080820190508181036000830152610d008187610b9c565b9050610d0f6020830186610ca1565b610d1c6040830185610ca1565b610d296060830184610ca1565b95945050505050565b60006020820190508181036000830152610d4b81610bd5565b9050919050565b60006020820190508181036000830152610d6b81610c3b565b9050919050565b6000602082019050610d876000830184610ca1565b92915050565b6000606082019050610da26000830186610ca1565b8181036020830152610db48185610b9c565b9050610dc36040830184610ca1565b949350505050565b6000604082019050610de06000830185610ca1565b610ded6020830184610ca1565b9392505050565b6000604051905081810181811067ffffffffffffffff82111715610e1b57610e1a610fd4565b5b8060405250919050565b600067ffffffffffffffff821115610e4057610e3f610fd4565b5b601f19601f8301169050602081019050919050565b600081519050919050565b600082825260208201905092915050565b6000610e7c82610e8f565b9050919050565b60008115159050919050565b600073ffffffffffffffffffffffffffffffffffffffff82169050919050565b6000819050919050565b82818337600083830152505050565b60005b83811015610ee6578082015181840152602081019050610ecb565b83811115610ef5576000848401525b50505050565b60006002820490506001821680610f1357607f821691505b60208210811415610f2757610f26610fa5565b5b50919050565b6000610f3882610eaf565b91507fffffffffffffffffffffffffffffffffffffffffffffffffffffffffffffffff821415610f6b57610f6a610f76565b5b600182019050919050565b7f4e487b7100000000000000000000000000000000000000000000000000000000600052601160045260246000fd5b7f4e487b7100000000000000000000000000000000000000000000000000000000600052602260045260246000fd5b7f4e487b7100000000000000000000000000000000000000000000000000000000600052604160045260246000fd5b6000601f19601f8301169050919050565b61101d81610e71565b811461102857600080fd5b50565b61103481610eaf565b811461103f57600080fd5b5056fea2646970667358221220954a1dd31687b05e29876c162f71a354bbf6098db9da44197c6d5ed712e5237e64736f6c63430008000033",
  "immutableReferences": {},
  "source": "// SPDX-License-Identifier: MIT\r\npragma solidity ^0.8.0;\r\n\r\ncontract InventoryManagement {\r\n    struct Product {\r\n        string name;\r\n        uint quantity;\r\n        uint price;\r\n        uint reorderThreshold;\r\n    }\r\n\r\n    mapping(uint => Product) public products;\r\n    mapping(address => bool) public managers;\r\n\r\n    address public owner = 0x0BFABb6471D6E953e06407078CC25E02699f543a;\r\n    uint public productCounter = 0;\r\n\r\n    event ProductAdded(uint productId, string name, uint quantity);\r\n    event InventoryUpdated(uint productId, uint newQuantity);\r\n    event ReorderTriggered(uint productId, uint reorderQuantity);\r\n\r\n    modifier onlyOwner() {\r\n        require(msg.sender == owner, \"Only owner can perform this action\");\r\n        _;\r\n    }\r\n\r\n    modifier onlyManager() {\r\n        require(managers[msg.sender] == true, \"Only managers can perform this action\");\r\n        _;\r\n    }\r\n\r\n    constructor() {\r\n        managers[owner] = true;\r\n    }\r\n\r\n    function addProduct(string memory _name, uint _quantity, uint _price, uint _reorderThreshold) public onlyManager {\r\n        products[productCounter] = Product(_name, _quantity, _price, _reorderThreshold);\r\n        emit ProductAdded(productCounter, _name, _quantity);\r\n        productCounter++;\r\n    }\r\n\r\n    function updateInventory(uint _productId, uint _newQuantity) public onlyManager {\r\n        products[_productId].quantity = _newQuantity;\r\n        emit InventoryUpdated(_productId, _newQuantity);\r\n        reorderIfNeeded(_productId);\r\n    }\r\n\r\n    function reorderIfNeeded(uint _productId) public onlyManager {\r\n    if (products[_productId].quantity < products[_productId].reorderThreshold) {\r\n        emit ReorderTriggered(_productId, products[_productId].quantity);\r\n        }\r\n    }   \r\n\r\n    function addManager(address _manager) public onlyOwner {\r\n        managers[_manager] = true;\r\n    }\r\n\r\n    function removeManager(address _manager) public onlyOwner {\r\n        managers[_manager] = false;\r\n    }\r\n\r\n    // Hm ly chi tit sn phm (khng bt buc v bin public  auto to getter)\r\n    function getProduct(uint _productId) public view returns (string memory, uint, uint, uint) {\r\n        Product memory p = products[_productId];\r\n        return (p.name, p.quantity, p.price, p.reorderThreshold);\r\n    }\r\n}\r\n",
  "sourcePath": "C:\\Users\\DELL\\Desktop\\NT\\contracts\\InventoryManagenment.sol",
  "compiler": {
    "name": "solc",
    "version": "0.8.0+commit.c7dfd78e.Emscripten.clang"
  },
  "schemaVersion": "3.4.16",
  "updatedAt": "2025-05-17T02:50:33.827Z",
  "networkType": "ethereum",
  "devdoc": {
    "kind": "dev",
    "methods": {},
    "version": 1
  },
  "userdoc": {
    "kind": "user",
    "methods": {},
    "version": 1
  }
}